:1000000008C1000036C1000034C1000032C1000048
:1000100030C100002EC100002CC100002AC1000028
:1000200028C1000026C1000024C1000022C1000038
:1000300020C100001EC100001CC100001AC1000048
:1000400018C1000016C1000014C1000012C1000058
:1000500010C100000EC100000CC10000CEC700009E
:1000600008C100005DC3000032C3000002C10000EF
:1000700000C10000FEC00000FCC00000FAC000008B
:10008000F8C00000F6C00000F4C00000F2C000009C
:10009000F0C00000EEC00000ECC00000EAC00000AC
:1000A000E8C00000E6C00000E4C00000E2C00000BC
:1000B000E0C00000DEC00000DCC00000DAC00000CC
:1000C000D8C00000D6C00000D4C00000D2C00000DC
:1000D000D0C00000CEC00000CCC00000CAC00000EC
:1000E000C8C0000059075C074B074F075307930729
:1000F000600764076A076E07720778077C07800746
:10010000930786078A078E07000021002400270036
:100110002A002D0030003300010100000401070116
:100120000A0100002200250028002B002E003100CB
:10013000340002010000050108010B010505050559
:10014000070508080808020202020A0A080804044F
:10015000040401010101010101010303030303037D
:100160000303040707070C0C0C0C0C0C0C0C02020C
:10017000020206060606060606060B0B0B0B0B0B09
:100180000B0B010210202008081020401020408096
:10019000020102010804020101020408102040804B
:1001A00080402010080402018004020180402010D9
:1001B0000804020108040201010204081020408022
:1001C000010204081020408000000A0B02090C0DF7
:1001D0000E080703040100000000000000000000FA
:1001E000000000000000000000000000000000000F
:1001F00000000000121110000000000000000000CC
:100200000000000000000000000000000000610F7E
:100210005D0F11241FBECFEFD1E2DEBFCDBF00E0E6
:100220000CBF24E0A0ECB3E001C01D92A738B207D8
:10023000E1F713E0A0E0B2E0E0E6F4E200E00BBF9B
:1002400002C007900D92A03CB107D9F711E0C8E0B9
:10025000D1E000E006C021970109802FFE010E9435
:100260000210C730D10780E00807A9F710D70C9417
:100270001F12C6CE0895CF92DF92EF92FF920F9396
:100280001F93CF93DF936C017A018B01C0E0D0E024
:10029000CE15DF0581F0D8016D918D01D601ED916C
:1002A000FC910190F081E02DC6011995892B11F088
:1002B0002196EECF7E01C701DF91CF911F910F9163
:1002C000FF90EF90DF90CF90089580E090E0089548
:1002D000FC01538D448D252F30E0842F90E0821B4C
:1002E000930B541710F0CF96089501970895FC01D1
:1002F000918D828D981761F0828DDF01A80FB11D5D
:100300005D968C91928D9F5F9F73928F90E0089580
:100310008FEF9FEF0895FC01918D828D981731F03A
:10032000828DE80FF11D858D90E008958FEF9FEF8E
:100330000895FC01918D228D892F90E0805C9F4F64
:10034000821B91098F73992708958AEC93E0F1DF5E
:1003500021E0892B09F420E0822F0895FC01848D8F
:10036000DF01A80FB11DA35ABF4F2C91848D90E0DF
:1003700001968F739927848FA689B7892C93A089BA
:10038000B1898C91837080648C93938D848D981344
:1003900006C00288F389E02D80818F7D80830895D7
:1003A000EF92FF920F931F93CF93DF93EC0181E0C5
:1003B000888F9B8D8C8D981305C0E889F989808181
:1003C00085FD25C0F62E0B8D10E00F5F1F4F0F73BC
:1003D0001127E02E8C8DE8120BC00FB607FCFACF68
:1003E000E889F989808185FFF5CFCE01B7DFF2CFAB
:1003F0008B8DFE01E80FF11DE35AFF4FF0829FB78E
:10040000F8940B8FEA89FB89808180620AC09FB7CC
:10041000F894EE89FF896083E889F9898081837087
:10042000806480839FBF81E090E0DF91CF911F9136
:100430000F91FF90EF900895CF93DF93EC01888D9B
:100440008823C1F0EA89FB89808185FD05C0A889E0
:10045000B9898C9186FD0EC00FB607FCF5CF80815F
:1004600085FFF2CFA889B9898C9185FFEDCFCE01A8
:1004700075DFE8CFDF91CF91089580E090E0892B80
:1004800019F063DF811125C080E090E0892B41F0F5
:1004900080E090E0892B21F00E94000081111CC0B7
:1004A00080E090E0892B41F080E090E0892B21F002
:1004B0000E940000811113C080E090E0892BA1F020
:1004C00080E090E0892B81F00E94000081110AC039
:1004D00008950E940000D8CF0E940000E1CF0E9442
:1004E0000000EACF0C94000008950E940B120F93B5
:1004F0001F93CF93DF93EC0188819981009729F0B6
:100500002A813B812617370788F48B016F5F7F4F65
:100510000E942B11009761F0998388831B830A83C3
:100520002C813D81232B11F4FC01108281E001C05C
:1005300080E0DF91CF911F910F910895FC012481FC
:1005400035816217730720F480819181009729F427
:100550001092C90389EC93E00895860F971F0895C0
:10056000EF92FF920F931F93CF93DF936115710565
:1005700011F480E01BC041155105B9F07B01EC017D
:100580008C819D818A01080F191FB801CE01AFDF50
:10059000882379F3288139818C819D81B701820F6D
:1005A000931F0E9418121D830C8381E0DF91CF916D
:1005B0001F910F91FF90EF9008956115710549F01B
:1005C000FB0101900020E9F73197AF01461B570B63
:1005D000C7CF80E00895CF93DF93EC0188819981A4
:1005E000009711F00E94A210198218821D821C82AD
:1005F0001B821A82DF91CF910895EF92FF920F93A1
:100600001F93CF93DF93EC017B018A01BA016FDF67
:10061000811103C0CE01DFDF07C01D830C83B7014A
:10062000888199810E941812CE01DF91CF911F918C
:100630000F91FF90EF900895CF93DF93EC01611538
:10064000710551F0FB0101900020E9F73197AF01EE
:10065000461B570BD2DF01C0BEDFCE01DF91CF9129
:100660000895CF93DF93EC01FB018617970751F0B4
:10067000608171816115710521F044815581BDDF73
:1006800001C0A9DFCE01DF91CF910895FC018081E7
:1006900091810C94A210FC011182108213821282AB
:1006A00015821482DECFFC01118210821382128225
:1006B000158214826115710549F0FB01019000203B
:1006C000E9F73197AF01461B570B97CF08951F925B
:1006D0000F920FB60F9211240BB60F922F933F93E8
:1006E0004F935F936F937F938F939F93AF93BF933A
:1006F000EF93FF938AEC93E031DEFF91EF91BF918E
:10070000AF919F918F917F916F915F914F913F91A9
:100710002F910F900BBE0F900FBE0F901F9018954A
:100720001F920F920FB60F9211240BB60F922F93B8
:100730008F939F93EF93FF93E091DA03F091DB03A4
:100740008081E091E003F091E10382FD12C090818D
:100750008091E3038F5F8F732091E403821751F040
:10076000E091E303F0E0E653FC4F958F8093E303C1
:1007700001C08081FF91EF919F918F912F910F90F8
:100780000BBE0F900FBE0F901F901895CF92DF9267
:10079000EF92FF920F931F93CF93DF93EB017B01B7
:1007A00029E0E20EF11C8B016C01C61AD70AC601C2
:1007B000800F911F0E94CA0FF80181938F01EE15DF
:1007C000FF05A9F7CE01DF91CF911F910F91FF9007
:1007D000EF90DF90CF900895CF93DF9387E793E07A
:1007E0008CD2CDE6D4E08881998128D380E893E04B
:1007F00084D28A8171D28DEF92E07FD28B816CD2CC
:100800008BE893E07AD28C8167D284E993E075D249
:1008100082E794E0DF91CF9105C3CF92DF92EF9210
:10082000FF92CF93DF9389E693E0FCD2C3E1D2E05D
:10083000C12CD12C76018BE993E05FD24AE0C7014D
:10084000B6010AD28BE993E058D2688170E080E06B
:1008500090E04AE001D28BE993E04FD2698170E0E9
:1008600080E090E04AE0F8D18BE993E046D28DE950
:1008700093E0D8D28FEFC81AD80AE80AF80A22966D
:1008800080E2C816D104E104F104A9F6DF91CF910A
:10089000FF90EF90DF90CF9008958FEA93E02DD2F4
:1008A00089E092E0BFD28AEA93E027D280E092E02A
:1008B000B9D28AEB93E021D2809112020DC2CF927D
:1008C000DF92EF92FF920F931F93CF93DF93CDB7F9
:1008D000DEB7C455D1090FB6F894DEBF0FBECDBF49
:1008E0007BDF60916D0470916E046F5F7F4F8E01AE
:1008F000075B1F4FC8016BD2F8012481358184E06A
:1009000090E07C01E21AF30A63E573E0CE01815BBB
:100910009F4FC9DEF4E0EF16F104A1F183E0E81681
:10092000F10481F46AE573E0CE018D5B9F4FBBDE7D
:10093000B801CE018D5B9F4F26D2D12CE12CFF2434
:10094000F3941EC0E2E0EE16F10469F469E573E089
:10095000CE01CD96A8DEB801CE01CD9614D2D12C11
:10096000EE24E3940CC068E573E0CE01C7969BDEED
:10097000B801CE01C79607D2DD24D394E12CF12C27
:10098000BC0104C0D12CE12CF12CB801CE01815B5B
:100990009F4FC7D1DD2019F0CE01C79677DEEE203C
:1009A00019F0CE01CD9672DEFF2021F0CE018D5BD5
:1009B0009F4F6CDEE0917104F0E0EE0FFF1FED5EE3
:1009C000FD4F6181CE016031A0F4C196B0D16AE5DE
:1009D00073E0CE018B9667DEBE016F5C7F4FCE0168
:1009E0008B96D1D1BC01CE01019655DEFF24F39444
:1009F00003C001969CD1F12CBE016F5F7F4FCE01E9
:100A0000815B9F4F8ED1CE01019640DEFF2031F0F9
:100A1000CE018B963BDECE01C19638DE609170042C
:100A2000CE016031A0F4859682D16AE573E0CE01F3
:100A30004F9639DEBE016B5D7F4FCE014F96A3D13D
:100A4000BC01CE01019627DEFF24F39403C001967A
:100A50006ED1F12CBE016F5F7F4FCE01815B9F4F46
:100A600060D1CE01019612DEFF2031F0CE014F960B
:100A70000DDECE0185960ADE60911202CE01603154
:100A8000A0F4499654D16AE573E0CE0143960BDE9B
:100A9000BE01675E7F4FCE01439675D1BC01CE018A
:100AA0000196F9DDFF24F39403C0019640D1F12CA7
:100AB000BE016F5F7F4FCE01815B9F4F32D1CE0170
:100AC0000196E4DDFF2031F0CE014396DFDDCE015B
:100AD0004996DCDD92E7E92E94E0F92EF701619169
:100AE0007F01CE01815B9F4F5FD1FAE7EF16F4E003
:100AF000FF06A1F7CC24C394D12CF12CB601CE0172
:100B0000815B9F4F1BDDFC018081F826FFEFCF1A30
:100B1000DF0A8FE0C816D10489F7EFE06F2DCE0110
:100B2000EF15A0F0079603D16AE573E0CE010196B8
:100B3000BADDBE01695F7F4FCE01019624D1BC01B1
:100B4000CE010D96A8DDFF24F39403C00D96EFD0DF
:100B5000F12CBE01635F7F4FCE01815B9F4FE1D0DF
:100B6000CE010D9693DDFF2031F0CE0101968EDD92
:100B7000CE0107968BDD65E573E0CE01815B9F4F6B
:100B80001CDDCE01815B9F4FB9D0CE01815B9F4FB1
:100B90007DDDC8017BDDCC5ADF4F0FB6F894DEBF98
:100BA0000FBECDBFDF91CF911F910F91FF90EF90BE
:100BB000DF90CF90089590ED980F9A3028F4082E8A
:100BC000000C990BC09708958154863248F4E82FA1
:100BD000F0E0E75AFD4F8081082E000C990B089534
:100BE00080E090E00895EAECF3E0A089B18982E02A
:100BF0008C93A485B5851C92A685B7858FEC8C93C4
:100C0000108EA489B58986E08C93A289B3898C91D2
:100C100080618C93A289B3898C9188608C93A2891E
:100C2000B3898C9180688C930288F389E02D808150
:100C30008F7D80830895009761F0FC010190002072
:100C4000E9F73197AF01481B590BBC018AEC93E0DF
:100C500012CB80E090E008958F929F92AF92BF9266
:100C60000F931F93CF93DF93CDB7DEB7A1970FB646
:100C7000F894DEBF0FBECDBF19A2423008F44AE09F
:100C80008E010F5D1F4F842E912CA12CB12CA5013C
:100C900094010E94E00FE62FB901CA010150110929
:100CA000EA3014F4E05D01C0E95CD801EC93232B39
:100CB000242B252B61F7C801BEDFA1960FB6F8944F
:100CC000DEBF0FBECDBFDF91CF911F910F91BF90BF
:100CD000AF909F908F900895CF93DF93682F70E02F
:100CE00080E090E04AE0B8DFEC0184EB92E0A3DF23
:100CF0008C0F9D1FDF91CF9108959DCFCF93DF93F0
:100D0000FC0144815581608171818AEC93E0B3DA02
:100D1000EC0184EB92E08FDF8C0F9D1FDF91CF9170
:100D20000895FB01448155816081718119CC0F9335
:100D30001F93CF93DF93CDB7DEB729970FB6F89403
:100D4000DEBF0FBECDBF8C01862FF801118210824D
:100D5000138212821582148240E1BE016F5F7F4FC1
:100D600090E00E94A10FBE016F5F7F4FC80164DC5D
:100D700029960FB6F894DEBF0FBECDBFDF91CF919D
:100D80001F910F910895CF93DF93EC01FB014481F4
:100D9000558160817181E4DB811102C0CE011BDCD1
:100DA000CE01DF91CF910895CF93DF931F921F92D1
:100DB000CDB7DEB769831A8241E050E0BE016F5FB4
:100DC0007F4FCEDB0F900F90DF91CF9108950F935F
:100DD0001F93CF93DF93CDB7DEB761970FB6F8942B
:100DE000DEBF0FBECDBF8C01CB01F8011182108296
:100DF00013821282158214824AE0BE016F5F7F4F18
:100E00000E94A10FBE016F5F7F4FC80115DC619684
:100E10000FB6F894DEBF0FBECDBFDF91CF911F910B
:100E20000F910895CF93DF9306DFEC0184EB92E0FE
:100E300002DF8C0F9D1FDF91CF910895CF93DF9339
:100E4000BC0180E090E04AE007DFEC0184EB92E037
:100E5000F2DE8C0F9D1FDF91CF910895382FECECBF
:100E6000F1E04491E6E8F1E02491E0E4F1E09491CE
:100E7000992309F46CC0442309F455C050E0FA01E9
:100E80003197E231F10508F04EC08827EE58FF4F48
:100E90008F4F0C940210809180008F7707C0809153
:100EA00080008F7D03C080918000877F80938000C9
:100EB0003AC084B58F7702C084B58F7D84BD33C0BE
:100EC0008091B0008F7703C08091B0008F7D8093B8
:100ED000B00029C0809190008F7707C0809190006A
:100EE0008F7D03C080919000877F809390001BC00E
:100EF0008091A0008F7707C08091A0008F7D03C0F4
:100F00008091A000877F8093A0000DC08091200178
:100F10008F7707C0809120018F7D03C080912001D1
:100F2000877F80932001E92FF0E0EE0FFF1FEE5D39
:100F3000FE4FA591B4919FB7F894311104C08C91E4
:100F40002095282302C0EC912E2B2C939FBF08954F
:100F500080917B00877F80937B0080E480937C007E
:100F600080917A00806480937A0080917A0086FD77
:100F7000FCCF809178002091790090E0922B089529
:100F80002FB7F89460917F04709180048091810460
:100F9000909182042FBF08950F931F93F1DF609308
:100FA000D2037093D3038093D4039093D5038AEC38
:100FB00093E09DD997FF1EC0E3DF0091D20310910B
:100FC000D3032091D4033091D503DC01CB01801BE6
:100FD000910BA20BB30B0091CE031091CF03209184
:100FE000D0033091D10380179107A207B307F8F21D
:100FF0008FEF9FEF1F910F9108951F920F920FB6E1
:101000000F9211242F933F938F939F93AF93BF938E
:1010100080917F0490918004A0918104B09182041A
:1010200030917E0423E0230F2D3720F40196A11D7B
:10103000B11D05C026E8230F0296A11DB11D209306
:101040007E0480937F0490938004A0938104B093E6
:10105000820480917A0490917B04A0917C04B091E9
:101060007D040196A11DB11D80937A0490937B04A9
:10107000A0937C04B0937D04BF91AF919F918F9119
:101080003F912F910F900FBE0F901F901895CF9307
:10109000DF93CDB7DEB7CE5AD1090FB6F894DEBFD5
:1010A0000FBECDBF789484B5826084BD84B5816065
:1010B00084BD85B5826085BD85B5816085BD809123
:1010C0006E00816080936E0010928100809181009B
:1010D0008260809381008091810081608093810093
:1010E000809180008160809380008091B100846055
:1010F0008093B1008091B00081608093B0008091B6
:101100009100826080939100809191008160809332
:101110009100809190008160809390008091A10067
:1011200082608093A1008091A10081608093A100E2
:101130008091A00081608093A00080912101826055
:101140008093210180912101816080932101809110
:10115000200181608093200180917A0084608093D7
:101160007A0080917A00826080937A0080917A0080
:10117000816080937A0080917A00806880937A0001
:101180001092C10030DD2FDDE6E8F1E02491E0E4CB
:10119000F1E084918823C9F090E0880F991FFC0149
:1011A000E85FFE4F45915491FC01EE5DFE4FA59125
:1011B000B4919FB7F894FA018081209582238083AF
:1011C0008C91E22FE823EC939FBFE8EBF1E02491B0
:1011D000E2E7F1E08491882399F090E0880F991F6D
:1011E000FC01E85FFE4FA591B491FC01EE5DFE4F5E
:1011F000859194918FB7F894EC91E22BEC938FBF8B
:101200004CDB69E072E080E090E0C0DA60E072E020
:1012100089E090E0BBDA82E190E0BCD680931202D4
:101220003CDBAEDE6093C5037093C6038093C703B7
:101230009093C803A5DE80911202E82FF0E0EE0F34
:10124000FF1FED5EFD4F1082818381E992E0EADDB0
:101250005E01F7E9AF0EB11C8E01015B1F4F8AECF6
:1012600093E067D8892B09F484C480EA92E045DDD5
:101270008AEC93E03CD8F82E682F8AEC93E090D863
:1012800084EB92E0D8DC2CE3F212E9CF66EB72E05B
:10129000CE01019608DA80DE97FD08C08E339105F5
:1012A00029F0682FCE0101967FDDF5CF809167048C
:1012B000909168040097C1F069817A816115710588
:1012C00091F04091690450916A042D813E8142174A
:1012D000530748F00E9418128D819E8190936C04F0
:1012E00080936B0417C02ED789819A8190936804EC
:1012F000809367048B819C8190936A048093690436
:101300008D819E8190936C0480936B041A82198264
:101310001C821B821E821D82CE010196B7D987EBEB
:1013200092E080DD87E694E0E9DCF12CC12CD12C41
:10133000B60187E694E002D9DC018C91F826BFEF74
:10134000CB1ADB0AEEE0CE16D10491F78FEC92E0D7
:10135000D4DC8F2DC1DC62E170E087E694E0EED84A
:10136000DC018C9128DC6C0163E170E087E694E09D
:10137000E5D8FC0180811FDCA4E0CC0CDD1CAA9523
:10138000E1F7C80ED91E81EE92E0B7DCC60156DD4A
:101390002F2D30E0C216D30609F061CF60E070E077
:1013A00087E694E0CBD8DC018C9105DC7C0161E020
:1013B00070E087E694E0C2D8FC018081FCDB4C0140
:1013C00062E070E087E694E0B9D8DC018C91F3DB51
:1013D0006C0163E070E087E694E0B0D8FC018081A6
:1013E000EADB74E0EE0CFF1C7A95E1F7E80CF91CDF
:1013F000E4E0EE0CFF1CEA95E1F7EC0CFD1CF4E0D8
:10140000EE0CFF1CFA95E1F7E80EF91E81EF92E071
:1014100074DCC70113DDF1E0EF16F10409F41FCF0E
:101420002BE0E216F10440F080916D0490916E047F
:10143000E816F90608F413CF64E070E087E694E05C
:101440007DD8DC018C91B7DBD82E65E070E087E6B3
:1014500094E074D8FC018081AEDBF0E1DF9E800D6A
:10146000112480936F0466E070E087E694E066D80C
:10147000DC018C91A0DBD82E67E070E087E694E079
:101480005DD8FC01808197DBF0E1DF9E800D1124A7
:101490008093700468E070E087E694E04FD8DC0148
:1014A0008C9189DBD82E69E070E087E694E046D81D
:1014B000FC01808180DBF0E1DF9E800D11248093B0
:1014C000710452E7C52E54E0D52E36016BE0862E0E
:1014D000912CB40187E694E031D8DC018C91F301C2
:1014E00081933F01FFEF8F1A9F0A23E18216910437
:1014F00081F772D9E114F10409F056C06AE070E096
:1015000087E694E01BD8DC018C9155DB7C016BE015
:1015100070E087E694E012D8FC0180814CDB24E087
:10152000EE0CFF1C2A95E1F7E80EF91E6CE070E066
:1015300087E694E003D8DC018C913DDB6C016DE023
:1015400070E087E694E00E949E02FC01808133DB1C
:1015500034E0CC0CDD1C3A95E1F7C80ED91E909012
:1015600071048DEF92E0C9DB8E2DB6DB8BE093E04A
:10157000C4DB8C2DB1DB86E193E0BFDB892DACDBD6
:10158000F701FF27960133272F5F3F4FEE0FFF1F15
:10159000ED5EFD4F808190E0281739071CF4C3945D
:1015A000C08291823AD95BCEF2E0EF16F10409F0E5
:1015B00065C08DE0882E82E0982E94E0E92EF12C13
:1015C000B70187E694E00E949E02DC016C918AECF0
:1015D00093E00E94D0013401F40161914F018AEC43
:1015E00093E00E94D00184EB92E025DBB70187E60F
:1015F00094E00E949E02DC019C91F3018081981787
:1016000021F080E293E00EDC2ACEFFEFEF1AFF0A12
:1016100028E0E216F104A1F6809171048093120291
:10162000B0E08B2EB2E09B2EF401D6018D916D01BE
:101630008193B2E0E830FB07C1F7A9E0EA2EF12C74
:10164000F401D1904F01C701A5D4D81619F06D2D22
:10165000C701A8D4FFEFEF1AFF0A22E1E216F10456
:1016600079F7F090120282E190E094D48F1509F49A
:10167000F6CD6F2D82E190E095D4F1CDF0926E041D
:10168000E0926D04E2E76E2EE4E07E2EFBE08F2E0A
:10169000912CB40187E694E00E949E02DC018C91BB
:1016A000F30181933F01FFEF8F1A9F0A23E1821616
:1016B000910479F780911202909170049813DAC026
:1016C000E0FECDCD86E393E0ADDB80917104811126
:1016D00009C056DC6093C0037093C1038093C203BA
:1016E0009093C30380916D0490916E0481309105B5
:1016F00059F4E9E0F2E08191D6018D936D01B2E0F9
:10170000E131FB07C1F7B4C0039769F4E0E0F2E010
:1017100088E092E0D6012D916D0121938E179F07ED
:10172000C9F7CDD8A5C0809174048D3609F0A0C04A
:10173000809175048F3609F09BC080E08FDB08DC58
:1017400007DCF80111821082138212821582148242
:1017500040E1BE016F5F7F4FEAD3BE016F5F7F4FF5
:10176000C8010E941C0381E079DBD80114968D9199
:101770009C91159784309105C1F18330910589F4CE
:101780006AE573E0CE0183569F4F0E945303B80170
:10179000CE0183569F4FF7DAD12CE12CFF24F3942E
:1017A00022C0029781F469E573E0CE018D559F4F09
:1017B0000E945303B801CE018D559F4FE4DAD12C1E
:1017C000EE24E3940FC068E573E0CE0187559F4F88
:1017D0000E945303B801CE0187559F4FD4DADD2410
:1017E000D394E12CF12CBC0104C0D12CE12CF12CC0
:1017F000B801C8010E943103DD2029F0CE018755D0
:101800009F4F0E944603EE2029F0CE018D559F4F39
:101810000E944603FF2029F0CE0183569F4F0E946D
:10182000460360E070E0C8010E949E02FC018081D6
:101830008093760461E070E0C8010E949E02DC01A2
:101840008C918093770462E070E0C8010E949E0250
:10185000FC0180818093780463E070E0C8010E94FD
:101860009E02DC018C9180937904C8010E9446039A
:1018700026D8F5CC90916F048913F1CC84E493E0E1
:10188000D1DA60916D0470916E04C501A0DAF501A2
:101890002481358184E090E07C01E21AF30A63E55B
:1018A00073E0C8010E945303F4E0EF16F104D9F18C
:1018B00023E0E216F10489F46AE573E0CE018B5A65
:1018C0009F4F0E945303B501CE018B5A9F4F5BDAA5
:1018D000912CE12CFF24F39424C082E0E816F1045B
:1018E00081F469E573E0CE01855A9F4F0E9453034E
:1018F000B501CE01855A9F4F46DA912CEE24E39430
:101900000FC068E573E0CE018F599F4F0E945303CB
:10191000B501CE018F599F4F36DA99249394E12C6B
:10192000F12CBC0104C0912CE12CF12CB501C801B3
:10193000F8D9992029F0CE018F599F4F0E94460374
:10194000EE2029F0CE01855A9F4F0E944603FF20CA
:1019500029F0CE018B5A9F4F0E944603E0917004FC
:10196000F0E0EE0FFF1FED5EFD4F6181CE016031B3
:10197000C8F489599F4FDBD96AE573E0CE018359DA
:101980009F4F0E945303BE0169597F4FCE01835977
:101990009F4FF9D9BC01CE0101960E944B03FF2451
:1019A000F39403C00196C3D9F12CBE016F5F7F4F42
:1019B000C801B7D9CE0101960E944603FF2051F01D
:1019C000CE0183599F4F0E944603CE0189599F4FF4
:1019D0000E94460360917004CE016031C8F48D58B6
:1019E0009F4FA5D96AE573E0CE0187589F4F0E94AB
:1019F0005303BE016D587F4FCE0187589F4FC3D907
:101A0000BC01CE0101960E944B03FF24F39403C056
:101A100001968DD9F12CBE016F5F7F4FC80181D92E
:101A2000CE0101960E944603FF2051F0CE01875857
:101A30009F4F0E944603CE018D589F4F0E94460340
:101A400060917104CE016031C8F481589F4F6FD905
:101A50006AE573E0CE018B579F4F0E945303BE018E
:101A600061587F4FCE018B579F4F8DD9BC01CE015E
:101A700001960E944B03FF24F39403C0019657D9AB
:101A8000F12CBE016F5F7F4FC8014BD9CE0101968B
:101A90000E944603FF2051F0CE018B579F4F0E94BA
:101AA0004603CE0181589F4F0E9446036AE7E62E07
:101AB00064E0F62ED6016D916D01C80175D9EC1464
:101AC000FD04C1F7F12CCC24C394D12CB601C8017C
:101AD0000E949E02FC018081F826FFEFCF1ADF0AE8
:101AE0002FE0C216D10491F78FE06F2D8F15D0F043
:101AF000CE0185579F4F1BD96AE573E0CE018F5603
:101B00009F4F0E945303BE0165577F4FCE018F56F2
:101B10009F4F39D9BC01CE0101960E944B03FF248F
:101B2000F39404C0CE01019602D9F12CBE016F5F7F
:101B30007F4FC801F6D8CE0101960E944603FF20D0
:101B400051F0CE018F569F4F0E944603CE0185571C
:101B50009F4F0E94460365E573E0C8010E94DD02C5
:101B6000C801CCD8C8010E944603C5010E944603A3
:101B700076CB06DAC090C503D090C603E090C703C9
:101B8000F090C803DC01CB018C199D09AE09BF0997
:101B9000813D9740A105B10508F453C1F1D9609387
:101BA000C5037093C6038093C7039093C8038091C5
:101BB000C403813218F01092C40303C08E5F809377
:101BC000C403E090C40363E573E0C8010E945303BB
:101BD00067E573E0C8010E94DD026CE573E0C801AF
:101BE0000E94DD026CE573E0C8010E94DD02609195
:101BF0001202CE016031B0F4439699D86AE573E0E1
:101C0000CE0149960E945303BE016D5E7F4FCE0107
:101C10004996B9D8BC01CE0101960E944B03FF241E
:101C2000F39403C0019683D8F12CBE016F5F7F4F00
:101C3000C80177D8CE0101960E944603FF2041F0EB
:101C4000CE0149960E944603CE0143960E94460368
:101C5000FFE06E2DCE01FE15B0F04F9668D86AE514
:101C600073E0CE0185960E945303BE01615E7F4FF3
:101C7000CE01859688D8BC01CE0101960E944B0307
:101C8000FF24F39403C0019652D8F12CBE016F5F7C
:101C90007F4FC80146D8CE0101960E944603FF201F
:101CA00041F0CE0185960E944603CE014F960E94D8
:101CB0004603F12CF701EE0FFF1FED5EFD4F608133
:101CC000CE016031B0F48B9632D86AE573E0CE0174
:101CD000C1960E945303BE01655D7F4FCE01C19640
:101CE00052D8BC01CE0101960E944B03DD24D3944F
:101CF00003C001961CD8D12CBE016F5F7F4FC80175
:101D000010D8CE0101960E944603DD2041F0CE019D
:101D1000C1960E944603CE018B960E944603F701AE
:101D2000EE0FFF1FEB5EFD4F6081CE016031B8F416
:101D3000C7960E9497066AE573E0CE01CD960E9491
:101D40005303BE01695C7F4FCE01CD961CD8BC0108
:101D5000CE0101960E944B03FF24F39404C0019628
:101D60000E949706F12CBE016F5F7F4FC8010E9451
:101D70009106CE0101960E944603FF2041F0CE015C
:101D8000CD960E944603CE01C7960E944603F12CD1
:101D9000CC24C394D12CB601C8010E949E02DC0160
:101DA0008C91F826BFEFCB1ADB0AEFE0CE16D104F8
:101DB00091F7FFE06F2DCE01FF15D8F08D5B9F4F9F
:101DC0000E9497066AE573E0CE01875B9F4F0E94F1
:101DD0005303BE016D5B7F4FCE01875B9F4F0E9417
:101DE000C306BC01CE0101960E944B03EE24E3948E
:101DF00004C001960E949706E12CBE016F5F7F4FE1
:101E0000C8010E949106CE0101960E944603EE2071
:101E100051F0CE01875B9F4F0E944603CE018D5B40
:101E20009F4F0E94460365E573E0C8010E94DD02F2
:101E3000C8010E947E068F2D0E946C06C8010E9478
:101E400046039ED8C090C003D090C103E090C20367
:101E5000F090C303DC01CB018C199D09AE09BF09C9
:101E600081339547A105B10528F18FE593E00E94E4
:101E70001207E3E1F2E083E592E03AE021E2308309
:101E8000218332968E179F07D1F780911202E82F97
:101E9000F0E0EE0FFF1FED5EFD4F108281830E9488
:101EA0000D046ED86093C0037093C1038093C20386
:101EB0009093C3030E943D02D2C987E694E00C943C
:101EC0004603EAECF3E01382128288EE93E0A0E08E
:101ED000B0E084839583A683B78383E892E09183FF
:101EE000808385EC90E09587848784EC90E09787E9
:101EF000868780EC90E0918B808B81EC90E0938BD7
:101F0000828B82EC90E0958B848B86EC90E0978BB3
:101F1000868B118E128E138E148E10926E04109278
:101F20006D0466EB72E087E694E00C945303BB27E4
:101F30004A3031F4992322F4BDE2909581959F4F68
:101F400001C0BB27FB015527AA27880F991FAA1F8D
:101F5000A41710F0A41B83955051B9F7A05DAA33C4
:101F600008F0A95DA193009779F7B111B19311928F
:101F7000CB0100C0DC01FC01672F71917723E1F7F1
:101F8000329704C07C916D9370836291AE17BF0746
:101F9000C8F30895F999FECF92BD81BDF89A9927AB
:101FA00080B50895262FF999FECF1FBA92BD81BD45
:101FB00020BD0FB6F894FA9AF99A0FBE01960895CB
:101FC000A1E21A2EAA1BBB1BFD010DC0AA1FBB1F3D
:101FD000EE1FFF1FA217B307E407F50720F0A21BAF
:101FE000B30BE40BF50B661F771F881F991F1A941C
:101FF00069F760957095809590959B01AC01BD0146
:10200000CF010895EE0FFF1F881F8BBF0790F69139
:10201000E02D19940F931F93CF93DF938230910596
:1020200010F482E090E0E0918504F091860420E0D5
:1020300030E0A0E0B0E0309719F140815181028199
:10204000138148175907C8F08417950769F410974A
:1020500031F012960C93129713961C9327C000939D
:1020600085041093860422C02115310519F042170A
:10207000530718F49A01BD01EF01DF01F801DBCF2E
:1020800021153105F9F0281B390B2430310580F476
:102090008A819B816115710521F0FB019383828305
:1020A00004C09093860480938504FE01329644C058
:1020B000FE01E20FF31F819391932250310939837E
:1020C00028833AC02091830430918404232B41F467
:1020D000209155023091560230938404209383045A
:1020E00020915302309154022115310541F42DB74E
:1020F0003EB74091570250915802241B350BE09196
:102100008304F0918404E217F307A0F42E1B3F0B25
:102110002817390778F0AC014E5F5F4F2417350759
:1021200048F04E0F5F1F50938404409383048193C3
:10213000919302C0E0E0F0E0CF01DF91CF911F91D9
:102140000F910895CF93DF93009709F481C0FC01AC
:10215000329713821282A0918504B0918604109761
:1021600081F420813181820F931F2091830430916B
:1021700084042817390751F5F0938404E09383040D
:1021800067C0ED0120E030E0CE17DF0740F44A8160
:102190005B819E0141155105F1F0EA01F5CFD38332
:1021A000C28340815181840F951FC817D90759F404
:1021B00088819981840F951F0296918380838A81FB
:1021C0009B81938382832115310529F4F093860442
:1021D000E09385043DC0E901FB83EA83499159916D
:1021E000C40FD51FEC17FD0761F480819181840F26
:1021F000951F0296E90199838883828193819B834D
:102200008A83E0E0F0E012968D919C9113970097FD
:1022100019F0FD01DC01F7CF8D919C9111979D0183
:102220002E5F3F4F820F931F2091830430918404CF
:102230002817390769F4309729F410928604109210
:10224000850402C013821282B0938404A093830495
:10225000DF91CF9108956F927F928F929F92AF926C
:10226000BF92CF92DF92EF92FF920F931F93CF9383
:10227000DF93009781F4CB01DF91CF911F910F91F4
:10228000FF90EF90DF90CF90BF90AF909F908F9096
:102290007F906F90BFCEFC01E60FF71F9C0122508C
:1022A0003109E217F30708F4A5C0EC01D9010D913B
:1022B0001C91119706171707A8F00530110508F4AF
:1022C00097C0C80104978617970708F491C0025079
:1022D0001109061B170B019311936D937C93CF018A
:1022E00031DF86C05B01A01AB10A4C01800E911E3D
:1022F000A0918504B0918604612C712CE12CF12C05
:10230000109709F446C08D919C911197A815B905B5
:10231000B1F56C0142E0C40ED11CCA14DB0478F1A3
:102320004C018A189B08640142E0C40ED11C12962D
:10233000BC9012971396AC91B5E0CB16D10440F047
:10234000B282A38391828082D9016D937C9309C06C
:102350000E5F1F4F800F911FF90191838083EB2D3A
:10236000FA2FE114F10431F0D7011396FC93EE93A8
:1023700012973EC0F0938604E093850439C0681636
:10238000790608F43C017D0112960D90BC91A02DB8
:10239000B7CF809183049091840488169906E1F464
:1023A00066167706C8F48091530290915402009704
:1023B00041F48DB79EB74091570250915802841B4B
:1023C000950BE817F907B0F4F0938404E0938304C5
:1023D000F901718360830CC0CB011CDE7C01009786
:1023E00049F0A801BE011BD0CE01ACDEC70104C07C
:1023F000CE0102C080E090E0DF91CF911F910F915C
:10240000FF90EF90DF90CF90BF90AF909F908F9014
:102410007F906F90089581E090E0F89410C0FB01E8
:10242000DC0102C001900D9241505040D8F7089550
:10243000FB01DC0101900D920020E1F7089511E00D
:10244000C8E0D1E000E005C0802FFE01DBDD219671
:10245000011DC930D10780E00807B1F7F894FFCF1C
:102460004646464646464646004646464646464652
:102470004600207E7F7E7F7E7F7E7F7E7F7E7F7E8A
:102480007F7E7F7E7F7E7F7E7F7E7F7E7F7E7F7E64
:102490007F7E7F7E7F7E7F7E7F7E7F7E7F7E7F7E54
:1024A0007F7E7F7E7F7E7F7E7F7E7F7E7F7E7F7E44
:1024B0007F7E7F0000870480000A0B0C0D0E0F004A
:1024C000000000000000000000000000000000000C
:1024D0000000000000000000000A0B0C0D0E0F00B1
:1024E000000000D0013B0168011C02990177018BBB
:1024F00001496E697469616C69736564202E2E00F0
:10250000536561726368696E67203C20466F756E23
:10251000643A20000D0A004D6573736167652050B1
:1025200061636B657420666F756E64202E2E006388
:10253000616C63756C617465645F585243533A20F3
:102540000072656365697665645F585243533A204B
:102550000053657175656E6365204E6F0064657329
:1025600074696E6174696F6E3A2000646973746196
:102570006E63653A20006E657874686F703A20006B
:10258000446566696365206964206E6F74206D61BF
:10259000746368656400457865637574696E672067
:1025A0002E2E2E00466F7277617264696E67202E40
:1025B0002E2E003C003E00303030300046460052A7
:1025C0006573736574696E6720526F7574696E67A1
:1025D000205461626C650073657269616C3A200019
:1025E0006E6578745F686F703A2000736F75726300
:1025F000653A2000646174613A20007C000A2D2D48
:102600002D2D2D2D2D2D2D2D2D00524F4F545F444E
:1026100045564943455F49443A006D7949443A007B
:00000001FF
